:02000004C0D06A
:10000000B0B58CB062B62548002404602448046072
:10001000244804602448012101702448017000F044
:1000200093FD2348B022214600F03CFE01AD284656
:1000300004F04CF928851F49084202D001A8048524
:1000400019E001A800F083FD01F026F8002003F07C
:100050005BFF012003F058FF03F008F802F004FEF4
:100060001548164901601648042116A2082301F01C
:100070000DFD00F003FB00F0D7FE01A9884203D17B
:1000800000F0D4FE00F063FD01A8008D002802D12D
:1000900000200CB0B0BD00F0C2FEC046441C0020E1
:1000A000481C0020801B00207C1B0020841B00209B
:1000B000881B0020FFFF0000381C002002100000F9
:1000C0003C1C002025640000B0B5054607202840F0
:1000D0000024012813D0022813D1002908D00C488D
:1000E00002F078F868B2002809DA01F00DFF06E0A6
:1000F000FF2152310648002202F098F804462046BB
:10010000B0BD044801210170022000F088FEC04605
:10011000F81800207C1B002080B501F031F980BD6B
:10012000F0B585B0F64D2978F6480C2936DC05295E
:100130007FD00C2900D0F3E0F3490A68824206D050
:100140000860F2480421F2A2082301F09FFCF14C60
:10015000012020760026E6612046183001F0F6FFE7
:10016000E06101F0ECFAE069EB49884200D176E207
:10017000002800D173E2E949884200D0D2E100F0C2
:10018000ABFF00F0AFFFA6602068002800D166E258
:10019000E069E149884200D024E160E20D297AD08B
:1001A0000E2900D0BCE0D84D286801280ADB401E8B
:1001B0002860C117C90D40184312D4480421D4A2A5
:1001C00001F064FCD64C2078012800D030E100F02A
:1001D00083FF00F087FFCF4D0020A8602968002929
:1001E00024D0E969CC4A91421ED11FE06968884257
:1001F0001CD202F005F8002818D1A868E968382652
:1002000070432A681018002902D08847002807D0B8
:10021000012803D1A86846432868801901F0B0F886
:10022000A868401CA86029680029DFD10020207040
:1002300015E2B5490A68824206D00860B348042135
:10024000B3A2082301F022FCB24C01202076002644
:10025000E6612046183001F079FFE06101F06FFAA5
:10026000E069AD49884200D1F9E1002800D1F6E10A
:10027000AA49884200D08FE100F02EFF00F032FF43
:10028000A6602068002800D1E9E1E069F9498842C8
:1002900000D0CAE0E3E1F64C6068A168814200D377
:1002A000DDE1012020760025E5612046183001F0CF
:1002B0004DFFE06101F043FAE069EE49884200D168
:1002C000CDE1ED49884200D19CE1002800D1C6E192
:1002D0002068002800D18AE1A0686168884200D3C4
:1002E00085E101F08DFF002800D080E1A068E16881
:1002F0003825684322681018002902D08847002852
:1003000007D0012803D1A06845432068401901F0B7
:1003100037F8A068401CA06021680029DDD166E1A3
:10032000D34C012020760025E5612046183001F0ED
:100330000DFFE06101F003FAE069CF49884200D087
:1003400092E000F0C9FE00F0CDFEA5602068002814
:1003500000D184E1E069C749884220D17FE160682B
:10036000854200D37BE101F04BFF002800D076E10D
:10037000A068E1683825684322681018002902D077
:100380008847002807D0012803D1A068454320688A
:10039000401900F0F5FFA068451CA5602068002802
:1003A000DDD15CE16068864200D358E101F028FFAE
:1003B000002800D053E1A068E1683825684322682E
:1003C0001018002902D08847002807D0012803D13F
:1003D000A06845432068401900F0D2FFA068461C81
:1003E000A66020680028DDD139E16068864200D32C
:1003F00035E101F005FF002800D030E1A068E16898
:100400003825684322681018002902D08847002840
:1004100007D0012803D1A06845432068401900F0A7
:10042000AFFFA068461CA66020680028DDD116E159
:100430002868002800DCE1E0012109020A46FF32B9
:100440001040884200D00AE100F046FE00F04AFE6B
:10045000874C0020A0602168002900D1FFE0E169FD
:10046000844A914248D1FAE02068002800D1BEE0D9
:10047000A0686168884200D3B9E001F0C1FE00289D
:1004800000D0B4E0A068E1683825684322681018FD
:10049000002902D08847002807D0012803D1A0688E
:1004A00045432068401900F06BFFA068401CA06025
:1004B00021680029DDD19AE06168884200D3CEE04E
:1004C00001F09EFE002800D0C9E0A068E168382550
:1004D000684322681018002902D08847002807D0F6
:1004E000012803D1A06845432068401900F048FF67
:1004F000A068401CA06021680029DDD1AFE0C046A3
:100500000018002002100000381C00203C1C0020B5
:1005100025640000881B0020445010B0555010B0D6
:10052000401C0020A088049020680390EE79AB79ED
:100530006F792A79ED78E1686846056041601202BA
:100540003A431B0233430398049900F04BFE2068A2
:1005500000284CD0A0686168884248D201F050FE63
:10056000002844D1A068E168382568432268101843
:10057000002902D08847002807D0012803D1A068AD
:1005800045432068401900F0FBFEA068401CA060B5
:1005900021680029DFD12AE02069002803D0E9780A
:1005A000490800F02FFF2068002820D0A06861686B
:1005B00088421CD201F024FE002818D1A068E1680E
:1005C0003825684322681018002902D0884700287F
:1005D00007D0012803D1A06845432068401900F0E6
:1005E000CFFEA068401CA06021680029DFD16068B0
:1005F000A168814233D301F003FE30E0002001F016
:100600008FFD2CE000F068FD00F06CFDA560206817
:10061000002824D0E069174988421ED11FE0606895
:1006200085421CD201F0ECFD002818D1A068E168D9
:100630003825684322681018002902D0884700280E
:1006400007D0012803D1A06845432068401900F075
:1006500097FEA068451CA56020680028DFD101F046
:10066000CFFD002801D100F0E7FB012005B0F0BD6F
:10067000881B0020445010B0555010B0F0B5BBB0EE
:1006800000263A96399638968B4C924D37A80680BC
:100690002CAF384603F01AFE3885854908420FD042
:1006A0002CA90E850F210903014009221203914252
:1006B00003D003225203914251D137A9088055E05B
:1006C0002F462CA800F043FA39983A900025399526
:1006D00038983A99C0B289B200F0F2FE3A90389553
:1006E000642176A0224601F02BF83A98002800D128
:1006F000BDE02078EA2800D0BEE061786D200302DA
:10070000754805293EDC012959D0022900D0B9E0FD
:1007100072490968814207D07049086004210823A2
:100720006F4870A201F0B2F9A078012800D0AEE0C5
:1007300038460078002808D06E4801F043FC654830
:1007400005706D4805606D48056002F089FC34282D
:1007500000D0A1E002F074FB02F018FC16E055494D
:1007600008400D21C902014337A801803798000ACB
:100770003999605437983999611848703998801CB4
:10078000399008E0062916D102F08CFB1020389928
:10079000014338913D4600F047FB2CA9884203D124
:1007A00000F044FB00F0D3F92CA8008D002800D104
:1007B0006CE700F034FBFF2964D13BB0F0BD474A41
:1007C0001168814208D010604548042145A21E46A8
:1007D000082301F05BF933463A98182862D9A8003B
:1007E00021184A7912068B791B041343CA79120225
:1007F0001A43097A11430AAA11506D1C052DEED136
:1008000000246846046021250AA9052202AE284674
:10081000334601F06DFC20220FAF284631463B469F
:1008200001F0FEFB19AE284621462246334601F070
:10083000DFFB0124284631463A46234601F008FCF6
:1008400008361D48412531462A4600F034FA3995CC
:10085000304600F021F924480078FE2101400829A3
:1008600001D1224804700920000300F0D8FA0120C9
:100870003870234800F0D3FA012038703720400246
:1008800000F0CDFA01203870184600F0C8FA0120B7
:100890003870174800F0C3FA012038701B2080021E
:1008A00000F0BDFA012038700933184600F0B7FA9D
:1008B000FFFF0000FF070000F818002041504455DA
:1008C0002072656365697665643A0A252E2A480AAE
:1008D000000000007C1B002002100000381C0020DB
:1008E0003C1C002025640000841B0020401C0020CC
:1008F000866A0000101B0020801B00200C1B0020BB
:1009000082690000F0B5D1B004900AAD17202870BC
:10091000681C142200F0CFF94A4C204601F052FB2B
:1009200020276846476019A909910160012615230F
:10093000204631462A4601F013FB204601F042FBD7
:100940006846476011AC04603E483146099A3B4610
:1009500001F006FB284615300422214600F0ABF9D1
:1009600041A81922294600F0A6F9002641A8805D79
:10097000002804D1761C192EF8D3322746E0002037
:100980000590C543322731220996039633460897CE
:1009900007920693DEB26E4305992F46774341AC2A
:1009A000E25D080210433A2103F0F4FBE055761EA5
:1009B00030461930F1D141A8099A825C2348784425
:1009C000435C089F7F1EF8B221AC2354069C631C35
:1009D000002A00D02346DEB2079C621E0996192E1B
:1009E000D5D331280ED80029039E0CD1E0B2401C8B
:1009F0007F1C312807D821A9095C401C3129F7D078
:100A0000471E00E0039EFF2006420BD038463146C9
:100A1000401EC2B221AB31249C54491EFF22114218
:100A2000F6D1BF1BF8B232210A1A232A06D221A915
:100A30000918049800F03FF951B0F0BD024800F0E9
:100A4000EEF9C04680180020146D0000B83900008F
:100A5000F0B5A9B003AB07C30EAD284601F0B2FA5A
:100A600020266846466006AF0760012428462146D6
:100A7000039A049B01F074FA284601F08DFA1420C1
:100A80006946059A0A604860284621463A46334638
:100A900001F066FA29B0F0BDF0B5A1B00090284E83
:100AA000284C7C441227304621463A4600F003F990
:100AB0001236304621463A4600F0FDF8204D2435E6
:100AC000284621463A4600F0F6F84020009A105C8D
:100AD000012101400220084318AC2070601C511C09
:100AE000202200F0E8F80FAF21223A70781C21464E
:100AF00000F0E1F82220AC2139540AAC1421204640
:100B000003F04EFB232138462246FFF7A1FF01AF39
:100B100038462146FFF7F6FE0B240948394622469F
:100B200000F0C9F839460B313046224600F0C3F8D0
:100B300016370C222846394600F0BDF821B0F0BD2A
:100B40004C1C0020C23800000020814670478146BE
:100B500070470000F0B581B000920F460546484B43
:100B60009F420FD0464C40262046314603F018FBEA
:100B700000984028024600D332462046394600F00D
:100B80009AF83F4B987801280BDC00282BD00128DD
:100B900069D1D81C04211C4601F0CAF94021204625
:100BA0002CE0022828D005285DD11879D9780902CF
:100BB0000143344A1068002481425AD1324E0098D1
:100BC0008019071F106800281BD014463946314091
:100BD0002E480268914200D907683A4632402C48B4
:100BE0000068591D31E000249C715C711C71DC703F
:100BF00040211846A8473CE021484021A84700244E
:100C000037E0987959790902014322480160016867
:100C10004908A8292DD8144601681C4801601C49C0
:100C20001D4A0A6059781A7812020A431B490A6061
:100C30001B49009A5718394631400268914200D941
:100C400007683A463240D91D134800F034F837405F
:100C50000F480168C91901600C480168C91B01608F
:100C60002068401C206009480168012002240029F6
:100C700003D10448002101602046C0B201B0F0BD9C
:100C8000C01A0020EC180020FFFF0000F41800201C
:100C90004C1A0020F0180020F8180020501A0020EC
:100CA000F9FF010080B50B46002A03D011461A4611
:100CB00003F080FA80BDB0B588420DD9002A14D067
:100CC000491E5242401E0023DB431C4654430D5D27
:100CD0000555521CF9D108E0002A06D000239CB229
:100CE0000D5D05555B1C521EF9D1B0BD01480021B8
:100CF00001607047EC180020F0B581B0294F3968C9
:100D0000002926D00090284C661D392530462946FA
:100D100003F046FA25480168090A217000686070EE
:100D20000520A070224A1068000AE0701068207147
:100D300011683868002914D014463B253B2800D898
:100D40003D681C48016830462A46FFF7B4FF009A08
:100D500018E017480021016016480160164801702C
:100D60001DE01646392800D83D683868000A6071D1
:100D70003868A0710F480168E01D2A46FFF79BFF05
:100D8000009A34460B480168491901603868401BD5
:100D900038602068401C206003484021904701B023
:100DA000F0BDC046F4180020C01A0020501A0020E0
:100DB000EC1800204C1A00206A1A002080B5002987
:100DC0000BD0064A00231360054A064B1360064AFF
:100DD0001160064A1160FFF78FFF80BDEC180020FC
:100DE0004C1A0020F8180020F4180020F0180020F9
:100DF00070B5431E491E52420020C443002A0CD045
:100E0000264656438D5D9E5D521CAE42F6D00020B4
:100E1000C1430120AE4200D80846C0B270BD80B5C3
:100E20000146484603F05EFA4846704700204946AE
:100E3000002900D04869704780B501F0E1F9002829
:100E40000BD106486021017000214170022282709E
:100E5000C1700171052101F0BDF980BD00180020AD
:100E600010B51948C078032807DC01280DD00228E6
:100E700026D1164802F0D1FB10BD04281DD0082849
:100E80001ED1124802F0C7FB10BD104C01212046B4
:100E900002F0BCFB204602F098FB0D4800780028C9
:100EA0000FD10C48002407222146FFF7FBFE0A4819
:100EB0000E222146FFF7F6FE10BD044802F0A9FB02
:100EC00010BD1020FFF7ABFF001800208C1C002085
:100ED000541A0020551A00205C1A00207F2101407E
:100EE0000148405C7047C046551A002010B51548AF
:100EF0000179042917D0022906D0012920D1811DAA
:100F0000124802F05BFA10BDC2787F211140062919
:100F100016D8C9B24A000E4B00249C52821D0B48C1
:100F200002F0DAFA10BDC2787F211140062907D8F5
:100F30004279C9B2044B5A54821D044802F06DFA3A
:100F400010BDC04600180020551A00208C1C00203F
:100F50005C1A002070B515460E460446FF2D1AD8BF
:100F60000D4850210170E91C0A0A427081708021ED
:100F70002143C170202101714571062101F02AF938
:100F80003046294601F026F97F20204040007D218F
:100F90000901024A115270BD001800205C1A00209D
:100FA00080B50A46014682201423FFF7D3FF80BD97
:100FB00080B50A46014683201423FFF7CBFF80BD8E
:100FC00080B50D480178002915D10C4906220A7018
:100FD0000A2101700A488278417809021143FF22F0
:100FE0005232914200D31146064A11801288C11C28
:100FF0000548FFF760FE80BD6A1A0020541A0020E1
:10100000001800206C1A0020F8180020B0B51E4807
:10101000827841780902114300780F2809DC0E28F4
:101020000ED00F281FD10020012926D1FFF718FF6D
:1010300022E010281BD0162815D1FFF7C1FF1BE0B6
:10104000002012490A1A9389002B09D06424642BCA
:101050001D4600D325465B1B93810D4A13420DD0DC
:10106000801C0E28EED10220FFF75AF8B0BD0020F8
:10107000032902D3FFF73AFF0120B0BD0548002144
:1010800001701020FFF7CBFE001800205C1A002032
:10109000FFFF00006A1A002010B5092000F01EFFB3
:1010A0000748002404700748048007480470FFF7CD
:1010B0001DFE06480460064804600648046010BD32
:1010C0006A1A00206C1A0020541A0020701A00209E
:1010D000741A0020781A002001480021016070472E
:1010E000701A002002480021016002480160704728
:1010F000741A0020781A0020B0B50D460446206B03
:1011000000280CD000F0D2FE01462046884700F0AF
:10111000CDFE0021002810D0012800D00446002D6B
:1011200007D02046A8470021002806D0012800D07B
:1011300004462046FEF7F0FF01210846B0BDB0B5D9
:101140008EB00D460446606B00280CD000F0AEFE59
:1011500001462046884700F0A9FE002100281BD048
:10116000012800D00446002D08D02046A8476C4630
:101170000021002810D0012800D004466D463822F6
:1011800028462146FFF797FD606A0490A06A059003
:101190002846FEF7C1FF012108460EB0B0BDB0B52C
:1011A0000D460446E06A00280CD000F07FFE0146A0
:1011B0002046884700F07AFE0021002810D0012840
:1011C00000D00446002D07D02046A8470021002863
:1011D00006D0012800D004462046FEF79DFF0121DD
:1011E0000846B0BDF0B587B002930392059100297F
:1011F00077D004900D9801900C98009000253C4BFE
:1012000006952F461E4600F0FBFF002855D13820DA
:101210006843049C251833461A680121954200D082
:10122000069906912056002841DA2020285C0221E8
:10123000695E0A1A039CA24239DC4118EA888918BF
:10124000039A8A4233DA04216C5E221A02998A4296
:101250002DDC2018298940180299814227DA186864
:10126000854210D0186800280DD00198002805D0BC
:101270002846019988473346002818D018680199F4
:10128000FFF73AFF08E00098012809D002280ED1A4
:1012900028460199FFF783FF3346002807D022E054
:1012A00028460199FFF74BFF334600281ED17F1CCB
:1012B000FDB205988542A5D300E0334606980006A6
:1012C0000FD0186800280CD000F09AFF3146002893
:1012D00007D108680199FFF70FFF002801D000200F
:1012E000306007B0F0BD00201860FAE71D60F8E735
:1012F000701A0020F0B589B00C46014602AD1C22E0
:1013000028460192FFF7D7FC2168E98062682A81AC
:10131000A0681A4F65233B7092B242438BB253438D
:10132000D9084E1C0722134200D10E4631460091C7
:101330000426864070181D30010A7970B8700321A8
:10134000384600F047FF2846019900F043FFA068A7
:1013500038700121384600F03DFFE06800F0A6FD3E
:10136000B1B200F037FF009885B2206900F09EFD11
:10137000294600F02FFF09B0F0BDC046001800203C
:1013800070B5044620787F26064000F039FF00281B
:1013900030D1002E2ED0E06900281DD000F086FD4F
:1013A0000546052E02D1A07E002824D0284602F052
:1013B000A7FF064612486521017031461C310A0A12
:1013C00042708170032100F005FF1C21204600F0CF
:1013D00001FFB1B228460BE00948652101700021E8
:1013E00041701C258570032100F0F4FE204629463B
:1013F00000F0F0FE70BD20462946FFF77BFF70BD70
:1014000000180020F0B581B00446002C2BD01748FE
:1014100002688A4203D1164A13685B1C136006688F
:101420000E43134A1568134F002901D0066004E0EB
:101430000023036013607B1C1E430068884201D0B8
:1014400000201060082D0BD30321284602F0A2FED5
:10145000012080073043002900D03046384000E0AA
:1014600030462946A04701B0F0BDC046741A00209E
:10147000781A0020FFFFFF7FF0B581B00F4E0124E6
:101480003470B11CFF2750377A1C204600F08AFECA
:10149000054675707A1B7719F91C022000F082FE50
:1014A000B8702D187619F47000F066FE3071902037
:1014B00070710020B071E81D01B0F0BDF818002077
:1014C000F0B587B002460720024206D01646F0B2B9
:1014D000FEF7FAFD80B207B0F0BD03907F4801909F
:1014E000832004907E4C804D164611E004980D3008
:1014F0007E4908704F70069A1643022103980242F3
:10150000324605D0E3E7FFF7B7FF01463A463E46CD
:10151000102313408FB2002F069200D191E0002BD0
:1015200000D08EE02078092805933CDC072841D0C4
:1015300009285BD100216B4E3046029101F04AFB35
:10154000304601F05AFB00280DD1FFF775FC8021D1
:101550000022284600F06AFEFFF758FD304601F0F1
:101560004CFB0128F1D1FE1D7008A92800D3B1E081
:1015700004980D305D49C855C819029A4270019807
:10158000001DBA1C0240481D0F46FFF794FB0522C0
:1015900038460299FFF786FBB3B2524804993A469F
:1015A00001F043FB34E00A280AD00B2820D1584828
:1015B000784401E0554878443946FFF7FFFB27E0BF
:1015C0004B4808404008A92800D383E053202870E6
:1015D000380A6870A9700321284600F0FBFD4348D3
:1015E000394600F0F7FD0020207011E000286ED091
:1015F000F0B23946FEF768FD002809D067E0FFF732
:101600001BFC80210022284600F010FEFFF7FEFCA4
:1016100020780028F3D10020207036490870364920
:1016200008800699890600D554E7FFF705FC069A5D
:101630001006059B05D501201E4600F071FD3346BE
:10164000069A002B05D150063CD400202070294971
:10165000087000202849088000F0D2FD002801D140
:10166000FFF7EAFB80260027284631463A4600F07D
:10167000DDFD022806D8A9786A7812020A43C01E46
:10168000904209D1FFF7C2FC20780028E4D01A4824
:1016900000880028E0D002E000202070DAE7042271
:1016A000124816A1FFF7A4FB002800D12BE7042263
:1016B0000E4814A1FFF79CFB002800D116E70E4846
:1016C000008807E70C4800880199401802E70920C4
:1016D000FFF7A5FB0220FFF7A2FBC046FBFF0000BF
:1016E0006A1A00207C1A002000180020F818002038
:1016F000FEFF0000541A00206C1A0020B001000008
:1017000000000000B0A7000000000000E7F9FFFFA4
:10171000FDF9FFFFB0B582B001AC66212170002554
:1017200065700121A170E0700421204600F052FD97
:10173000032120462A4600F079FD02B0B0BD704773
:1017400083B0F0B58CB0044611A80EC0002C00D1B7
:101750008DE111A8079086E125460026014602E0AA
:10176000A9194978761CCAB2002A01D0252AF7D1D6
:10177000AC19002E0CD0C0B2FFF7CCFF012E06D062
:101780000127E85DFFF7C6FF7F1CB742F9D121783A
:10179000C8B2252800D066E1A819431C00212020EA
:1017A00004900A200691039105910422D543022258
:1017B0001C462378641C00272D2B0DDC3946F8D0FD
:1017C000252B7FD02A2B00D0FAE02178732900D076
:1017D000F6E0114623464BE0472B14DC1A46303A1C
:1017E0000A2A34D2302B049D2A4600D11A46059F7E
:1017F000002F00D02A460A257D43EB18303B059385
:1018000004922346D1E7672B04DD722B08DD732B8E
:1018100034D10AE0622B36DC482B43D1012002E0B0
:10182000682B45D1002003901020079B1F1D0797B0
:1018300003273940521C1F68012900D1BBE002294F
:1018400000D1BAE0032911462346AED0C1E02E2BC9
:1018500000D0B5E021782A2900D0B1E06278631C7D
:101860000121482A04D0682A02D0732A00D0A7E0B8
:10187000079A141D07941268069296E7752B23D0D9
:10188000782B18D09CE0632B00D18DE0642B00D026
:1018900096E00798011D07910068C11742184A4059
:1018A000C00F16E0582B00D08AE00120039002E020
:1018B000702B00D084E00798011D0791026800207A
:1018C000102607E0252073E00798011D07910268A4
:1018D00000200A26029001270692964212D801257E
:1018E00030460746314602F0CFFBA84209D13046C8
:1018F00078430599491E0591069988423D46F0D9DD
:1019000000E02F460025E943029B002B00D1194639
:101910000598019140180499CAB2302A06D1002BCB
:1019200004D008A92D230B7001250023811E0D2949
:101930000CD8411E0AD008A82843029302F03AFCB2
:10194000029B0598401901994018451E002B03D0B1
:1019500008A82D2141556D1C002F1BD0039800288D
:1019600002D04948784401E04648784405900698FA
:10197000394602F089FB314602F00CFC0598405CC8
:1019800008A948553846314602F07EFB6D1CBE4220
:101990000746ECD9002D66D008AE3078FFF7BAFEC6
:1019A000761C6D1EF9D15EE00798011D0791007845
:1019B000FFF7B0FE57E0069A11E0387800283FD0D4
:1019C0002D48784440194079FFF7A4FE6D1CF7D1EB
:1019D00049E02A1DB9184978521C0029FAD106920B
:1019E0001028039E1FD106981AE038780F2505406D
:1019F0000009012E05D0002E0ED1C0B21F4E7E442C
:101A000002E0C0B21E4E7E44305CFFF783FEE8B2B7
:101A1000305C039EFFF77EFE0698401E7F1C0690FA
:101A20000028E2D11FE000260698002810D00025EB
:101A3000069E785DFFF76EFE6D1CAE42F9D107E0A1
:101A4000281D0699451A2020FFF764FE6D1CFAD167
:101A50000599B14207D9881B05D0751A2020FFF7D8
:101A600059FE6D1CFAD12078002800D074E60CB025
:101A7000F0BC01BC03B000470E2A0000B2290000F0
:101A8000BA290000462A00005C2A000081B0F0B5A7
:101A900090B015460C460A901593022C00D2F5E141
:101AA0000A98002800D1F1E1002D00D1EEE10021DB
:101AB0000A9807912246FFF7F5F815A80B902878A9
:101AC000002800D1E2E10799C943671E0591C2E1F0
:101AD0002819295D25290BD103970292431C002068
:101AE000202108910A21019100900490099056E06C
:101AF00005460A9221E12B4608464BE0472B13DCB2
:101B0000194630390A2934D2302B089900D11946A8
:101B1000099F002F00D008990A227A43D218303A40
:101B200009922B4608913AE0672B04DD722B09DD00
:101B3000732B46D10AE0622B48DC482B55D1012299
:101B4000049201E0682B56D1102201920B9A131DCA
:101B50000B93032318404F1C1168012800D1D0E0DB
:101B6000022800D1D2E003282B463846069F16D023
:101B7000E9E02E2B00D0CCE028782A2800D0C8E05D
:101B800069786B1C0120482904D0682902D0732988
:101B900000D0BEE00B990A1D0B920968009102214A
:101BA0001D462B786D1C00222D2BA7DC1046F8D08B
:101BB000252B2AD02A2B00D0ABE0287873289AD086
:101BC000A7E0752B23D0782B18D0A2E0632B00D18F
:101BD0008DE0642B00D09CE00B98011D0B910068F8
:101BE000C11742184A40C00F16E0582B00D090E0B1
:101BF0000120049002E0702B00D08AE00B98011DB8
:101C00000B9102680020102707E0252073E00B9855
:101C1000011D0B91026800200A27069001260A92F6
:101C2000974212D8012438460646394602F02CFA6B
:101C3000A04209D1384670430999491E09910A9971
:101C400088423446F0D900E026460024E143069B52
:101C5000002B00D119460998019140180899CAB281
:101C6000302A06D1002B04D00CA92D230B700023A1
:101C70000124811E0D290CD8411E0AD00CA8204336
:101C8000069302F097FA069B0998001901994018EB
:101C9000441E002B03D00CA82D210155641C049870
:101CA000002E1AD0002802D07F48784401E07D48F9
:101CB000784409900A98314602F0E6F9394602F074
:101CC00069FA0998405C0CA908553046394602F07B
:101CD000DBF9641CB7420646ECD9039B9C4200D357
:101CE0001C460CA9029E304622461F461CE00B985B
:101CF000011D0B910068029908700398401E491C51
:101D000016E0009C059A039B069F24E008780028B3
:101D100077D00520039F052F3C4600D304465E493B
:101D20007944029E30462246FEF7C5FF381B311922
:101D30000A910746002800D1A8E0287800280599D4
:101D400000D088E0A2E0059A1446039B0819407869
:101D5000641C0028FAD101981028029846D1002C62
:101D600076D008910A988318D01B8642314600D855
:101D7000014603914A430292501C019000203A46CA
:101D80000A9302995B1809900899085C0F2707408D
:101D9000000903998918491C022977D3049901295C
:101DA00004D000290AD13E49794401E03B497944F5
:101DB000C0B2085C1870F8B2085C58700198904284
:101DC00064D0921E0A9B9B1C0998401CA042D7D34A
:101DD000099005990698081A864200D806460846D2
:101DE000704318180A90B018471C1CE09C4200D39E
:101DF0001C46224606461F46FEF75DFF381B31197A
:101E00000DE0039B009F9F4200D31F462021029EAE
:101E100030463A46FEF746FF0398C01BF1190A9177
:101E20000746002832D00998A04286D9041B3E46B6
:101E3000B44200D3344620210A9F38462246FEF79A
:101E400031FF361B3F190A973746002E1ED074E724
:101E50001F460A9071E70E46079C03E02819407858
:101E6000761E641CC0B2002801D02528F6D1BC42E1
:101E700000D33C460A9829462246FEF71CFF0697E7
:101E80003F1B0A980219002F00D021E6002010B055
:101E9000F0BC02BC01B00847B026000012260000CA
:101EA00008260000002700001627000080B504491E
:101EB000884204D30349884201D200F005F880BD6E
:101EC0000000D0C04049D0C07A460249C91C891AD6
:101ED000401A7047C91ED0C001DF704780B582B07C
:101EE000009007486946FFF7F7FF01AA116005490E
:101EF000884201D102B080BD0420FEF790FFC046A9
:101F000037010060C601009080B582B0064801A983
:101F1000FFF7E2FF6A4611600449884201D102B02E
:101F200080BD0420FEF77BFF00020060F1020090FC
:101F300080B584B001900291074801A9FFF7CCFF5A
:101F400003AA11600549884202D1039804B080BDFC
:101F50000420FEF764FFC0462C0500606705009072
:101F600080B588B001AF0FC70A9805900B9806900E
:101F7000074801A9FFF7B0FF07AA11600549884289
:101F800002D1079808B080BD0420FEF748FFC04684
:101F90003B070060AD07009080B582B00090074815
:101FA0006946FFF799FF01AA11600549884202D1ED
:101FB000019802B080BD0420FEF731FF7F08006069
:101FC000F808009080B582B0009007486946FFF796
:101FD00083FF01AA11600549884202D1019802B02D
:101FE00080BD0420FEF71BFFDB0A0060640A00903E
:101FF00080B586B001AF0FC7074801A9FFF76CFF96
:1020000005AA11600549884202D1059806B080BD35
:102010000420FEF704FFC046ED2D0060492D00901E
:1020200080B586B001AF0FC7074801A9FFF754FF7D
:1020300005AA11600549884202D1059806B080BD05
:102040000420FEF7ECFEC046EA2E0060632E0090EE
:1020500080B586B001AF0FC7074801A9FFF73CFF65
:1020600005AA11600549884202D1059806B080BDD5
:102070000420FEF7D4FEC0462E2F0060742F00907F
:1020800080B58AB001AF0FC70C9805900D980690E7
:102090000E9807900F980890074801A9FFF71CFFBA
:1020A00009AA11600549884202D109980AB080BD89
:1020B0000420FEF7B4FEC046F33800607638009086
:1020C00080B584B000AB07C307486946FFF704FF3B
:1020D00003AA11600549884203D103A8008804B00F
:1020E00080BD0420FEF79BFE9E3C0060B93C009042
:1020F00080B586B000AF0FC70898049006486946BF
:10210000FFF7EAFE05AA11600449884201D106B032
:1021100080BD0420FEF783FEBA5300601E5300907A
:1021200080B582B0009007486946FFF7D5FE01AA46
:1021300011600549884201D102B080BD0420FEF73C
:102140006EFEC046E16200606F62009080B582B0B2
:10215000009007486946FFF7BFFE01AA11600549D4
:10216000884202D1019802B080BD0420FEF757FEDC
:10217000586400601F64009080B582B0074801A9D0
:10218000FFF7AAFE6A4611600549884202D100980D
:1021900002B080BD0420FEF742FEC0466E680060BB
:1021A0007F68009080B584B000AB07C307486946DC
:1021B000FFF792FE03AA11600549884202D10398F5
:1021C00004B080BD0420FEF72AFEC046D470006033
:1021D0008770009080B584B001900291064801A9F3
:1021E000FFF77AFE03AA11600449884201D104B0C6
:1021F00080BD0420FEF713FE1C720060F372009095
:1022000080B582B0074801A9FFF766FE6A461160F3
:102210000549884202D1009802B080BD0420FEF733
:10222000FEFDC046CF7300607F73009080B584B020
:1022300000AB07C307486946FFF74EFE03AA1160CB
:102240000549884203D103A8008804B080BD04205A
:10225000FEF7E5FDD17400602B740090F0B585B0F9
:10226000344A12788324002A02D03B4A7A4409E097
:102270000A9A452A02D8394A7A4403E0072907D145
:10228000374A7A440223214600F0CFFC05B0F0BD66
:10229000029201940390402004931F5C002F18D0F9
:1022A000052F049E07D13046413023A10522FEF7B9
:1022B0009FFD00282CD04136002422A5E0B2032146
:1022C00001F068FF305D695C41403155641CA742F4
:1022D000F4D145200499085C4630029A824211D11B
:1022E000413117483A46FEF7E6FC1948078019487D
:1022F0000721017009200F4908700121039800F09F
:1023000069FCC3E7174A7A44022303980199BBE7A3
:102310000B4E03223270701C0AA1FEF7CCFC301D5C
:1023200009A10422FEF7C7FC3078431D03980199E8
:102330003246A9E76A1A0020F1D000000000000030
:10234000F81800204F4E540090009000000000004C
:102350006C1A0020541A00206C2100006221000039
:102360005A210000D8200000F0B581B01D460E466D
:102370000446284600F01EFC012804D168460421CA
:10238000FFF7D6FD04E0684604222946FEF793FCD9
:10239000174F082238463146FEF78DFC3846083084
:1023A00069460422FEF787FC022038730020787308
:1023B0000121B973F8733874284600F0FBFB01461D
:1023C000201D8625012906D129467931C9B204226A
:1023D000FEF768FC03E069460422FEF76CFC044A41
:1023E00011232046294600F020FC01B0F0BDC04674
:1023F000F8180020F0B585B015460C460490A07979
:1024000061790E020643A078029061782778093A34
:1024100090B2832303931F4B864203D0ED1F2B40C2
:102420009E421BD13246002F08D01B4A7A44022319
:102430000498039900F0F9FB05B0F0BD022917DC00
:10244000012920D002291BD190B269460860E31D02
:10245000002204980299FFF701FFEDE7D0B286420F
:10246000E1D0E8B286422A46DDD00C4A7A44DEE763
:1024700003290BD0C12903D1094A7A440423D7E7A1
:102480000A4A7A44D3E7074A7A44D0E7064A7A44AC
:102490000823CDE7FFFF0000C01F00006E1F0000F3
:1024A0006E1F00004E1F0000521F00006C1F000036
:1024B00080B5C1698A784B781B0213430A78812A58
:1024C00009D0832A0CD0862A0ED1C91C031D0022F4
:1024D000FFF74AFF80BDCA1C812100F0A6FB80BD2A
:1024E000C91C1A46FFF786FF80BD000070B50D4677
:1024F0000146012A12D1174C20462A46FEF7DBFB83
:1025000060194026721B00252946FEF7CBFB81206F
:10251000214632462B46FEF71DFD70BD02A0114636
:10252000FFF70EF970BDC046526571756573742072
:10253000746F2073656E64206F6E20756E73757096
:10254000706F72746564206D656469612025640A2A
:1025500000000000C01A0020C16002820022C28276
:1025600082762B23C2542A23C2548284C161026220
:1025700070470000F0B583B00D4604462B20215C67
:1025800020462B30002902D00021017061E020217B
:10259000615CC91EC9B223462033012959D8218B59
:1025A000E28A914224D904230020012D00D0034661
:1025B0000290A07E03270126002800D037461F4343
:1025C0004023DE1B891AB14200DC0E46F11901914D
:1025D000012D08D1211D2148042202920093FEF70B
:1025E0006AFB009BA07E00280FD0FF30029918E004
:1025F0002FD10021E182A17601702A2021549980F7
:102600001960E068E0611448BFE7E05C029B99B2A2
:10261000124A50540120184381B2637E5354411C26
:10262000207E89B20D4B5854E169002905D0B2B221
:10263000D819E38AC918FEF73EFBE08A8019E082C8
:10264000A07E401CA076019881B204482A46FFF77C
:102650004DFF03B0F0BDC0466A1A0020C01A00202A
:10266000B0B52B2101244454011D0B4D04222846F2
:10267000FEF721FB83202871002068710220A871D9
:102680006920E8717C20C043801C287209212846FB
:102690002246FFF72BFFB0BDC01A0020B0B52B219A
:1026A00001244454011D084D04222846FEF703FB73
:1026B0008820287100206871A871072128462246C9
:1026C000FFF714FFB0BDC046C01A0020F0B585B0BA
:1026D00004462520235C274625370020052B19D0EA
:1026E000049008784B781B0203438878CE78360232
:1026F0000643300418432379667936021E43A379D2
:10270000E5792D021D432B043343834204D0052079
:102710003870049805B0F0BD0E790D1D608C012352
:102720000393304B00281ED002932423E55C2346FC
:102730002433AE42EBD1258B0095751C1D70009B98
:102740001E1A531F05250195B34200DB0190B342C9
:1027500000DB009A019BD31A18186084029A1A4071
:10276000208D491D25E07C20C043401DC0B2029051
:10277000832001900298864203D12046FFF78EFF06
:102780002DE002951D46487903028879C01C184344
:1027900001998E42BBD1218B8842B8D1111F814251
:1027A00000DB0146618424220020A0542A460A400E
:1027B0000299FFF785FC2085218B628C8A420ED31B
:1027C000E18C8842A3D106203870002565842A2038
:1027D000205C012803D12046FFF742FF3D7003989B
:1027E00098E7C046FFFF0000F0B58BB004462372A7
:1027F0002020205C27462037852503280ED009910C
:102800000A922A21615C26462A36002913D02046E6
:1028100009990A9AFFF75AFF002873D1E048062168
:102820000172042139700021A1760830E061E18253
:10283000012020835FE0042809D10020E082A076F7
:102840002B2160543070B8803860E068E06104216A
:1028500000200893012B00D0014601230A461A43A9
:102860000A9890423DD30492089801280691059554
:10287000079307D1201D04220999FEF71CFA069937
:10288000079B059DE08AC74A00280FD008980128B9
:1028900022D120461230211D15460422FEF7A8FA47
:1028A00006992A46079B059D002815D00326084651
:1028B000039630430E460A99814212D3099988192A
:1028C000029088570E4629467A3149B2884237DD50
:1028D000B3480421017207E0022008430A998142AB
:1028E00012D2AF480572042139700021A176083058
:1028F000E061E18223833A3540202554217A204645
:10290000FFF738FE0BB0F0BD2120205C089988420B
:102910004DD13878012856D103920898012800D06B
:1029200085E0211D042509982A461E46FEF760FA17
:10293000334600287BD09A48062101723D70F6E0AC
:10294000089B012B16D1387801281FD1201D214664
:102950001231154604220190FEF74AFA2A46089BD6
:10296000059D002806D002980078691CC9B28842EB
:1029700000D0F6E03878012808D1012B00D082E0A1
:1029800002980078691CC9B288427CD1022006995D
:102990000843305C0499715C09020143208AC01E1F
:1029A00081421EDD7E480399017204216EE02846B3
:1029B00008307B490872042038700020A076083166
:1029C000E161E08296E70898012881D10020E08249
:1029D000A0762B2160543070B8803860E068E061E8
:1029E00090E7029800788128079B04D0862859D068
:1029F000832800D0ACE009910392089801285FD1A8
:102A0000261D69497944042530462A46FEF7F0F927
:102A1000002807D06549794404223046FEF7E8F9DA
:102A200000284DD15E480B2101723D70B0E0069840
:102A3000099A1118105CA27E90422FD10A98049A2C
:102A4000851AE08A228B121A954200DB1546039EF6
:102A50002E40E2691018491C3246FEF72CF90898FE
:102A6000012807D1E08AE1690918E08C3246FFF7B6
:102A700027FBE084E08A4019E082A07E401CA0761B
:102A8000079B089D45E046480421017239700021EA
:102A9000A1760830E061E1820798CAE64048042147
:102AA000017243E00898012852D109910392201D38
:102AB0003F49794404263246FEF79AF9002863D04C
:102AC0000A980699461A0998C01C8642039D00DBA5
:102AD00006460A903540E06902992A46FEF7EBF86F
:102AE000089B012B06D1E16900202A46FFF7E8FA8E
:102AF000089BE084E6820A9820832120235400204A
:102B0000A07620461230211D04221D46FEF7D3F880
:102B1000079BE08A012D01D1218B13E0218BCA1C78
:102B200090420FD91E4803210172042139700021FF
:102B3000A1760830E061E182238305993A31402093
:102B40002154DBE6884206D2002060633B70D9E660
:102B500013480372C7E6022038702046FFF7A8FC2E
:102B6000D0E60F4C042220460199FEF7A4F83A352E
:102B7000257100206071079AA2710620E07108217A
:102B80002046FFF7B3FCBDE605480B2101723E70FD
:102B90000021A1760830E061E18207982083CCE72C
:102BA000C01A0020FFFF0000EC190000DE19000031
:102BB0004219000080B5064979440422FEF718F94D
:102BC000014601200022002900D0104680BDC046E9
:102BD0003818000080B52A22835C02462A32012977
:102BE00006D1002B08D101211170FFF739FD80BDFE
:102BF000012B01D10220107080BD01462A200A5C01
:102C00000120002A10D0012A01D100207047252080
:102C10000A5C0020062A07D12B200A5C0120002133
:102C2000002A01D0084670477047B0B52A24045DD9
:102C3000002C09D0012C15D02524045D062C11D1BF
:102C40002B24045D002C0DD12024032505550024E0
:102C50008476C261C4820383402281542121415C75
:102C6000FFF788FCB0BD0000B0B52348012101701A
:102C7000224C244878442060042060602248784434
:102C800020610025E56003202076E56120461830AC
:102C9000FFF75CFAE061FEF752FDFEF71DFAFEF762
:102CA00021FAA5602068002824D0E06914498842F0
:102CB0001ED11FE0606885421CD2FFF7A1FA0028F0
:102CC00018D1A068E16838256843226810180029E7
:102CD00002D08847002807D0012803D1A0684543C7
:102CE00020684019FDF718FAA068451CA560206807
:102CF0000028DFD1B0BDC046841B0020881B002007
:102D0000445010B0A41800000B020000F0B5D5B07C
:102D100000205490484D81006A1853791B0694791D
:102D200024041C43D3791B022343127A1A434FAB6A
:102D30005A50401C0528EED12946193147A8059064
:102D40002022079201F032FA002768460760212608
:102D500004964FA9052235AC30462346FFF7C8F943
:102D60003DAB069330462146079E3246FFF758F9A1
:102D7000204639463246FDF795FF22AC049E304688
:102D800039463A462346FFF733F9012330462146B8
:102D9000069AFFF75DF9089709AE64243046394674
:102DA0002246FDF77FFF08A86946079A44C10C60D8
:102DB0004860224903220492069C2046059BFFF7A7
:102DC0005FF905902822204606973946FDF76AFFED
:102DD0000898049908401B302870711D341DF7783D
:102DE000212F00D02146F0194679681C079AFDF77B
:102DF00062FFE119481C212E00D00846811C28469C
:102E00002130079C2246FDF756FF0598C0B254902A
:102E10005498411C5491902129545498411C549128
:102E2000069E2E54549881B22046FEF749FBFFF7C8
:102E30001BFF304655B0F0BDF81800200106000019
:102E400070B588B00F4919316C462022204601F038
:102E5000ADF90D4D00210C222846FDF723FF022677
:102E600020462946324601F0EDF82A202871687183
:102E7000A8711E34E91D2046324601F0E3F808B07F
:102E800070BDC046F8180020001B002080B5044922
:102E9000884202D10020FFF743F9002080BDC046E0
:102EA00001000080B0B5214C224878442060042005
:102EB00060602148784420610025E5600320207689
:102EC000E56120461830FFF741F9E061FEF737FC75
:102ED000FEF702F9FEF706F9A5602068002824D065
:102EE000E069134988421ED11FE0606885421CD208
:102EF000FFF786F9002818D1A068E16838256843F3
:102F000022681018002902D08847002807D001281D
:102F100003D1A068454320684019FDF7FDF8A0687B
:102F2000451CA56020680028DFD1B0BD881B0020AB
:102F3000445010B08E1500008500000080B5104987
:102F4000884210D00F49884218D10F48692101707A
:102F50006F21C94308314170902181700021C170F7
:102F60002020042106E008486921017001214170F8
:102F700020200221FEF7A4FAFFF776FE002080BD94
:102F80000100008002000080F8180020B0B5214C3C
:102F90002248784420600520606021487844206100
:102FA0000025E56003202076E56120461830FFF714
:102FB000CDF8E061FEF7C3FBFEF78EF8FEF792F85E
:102FC000A5602068002824D0E069134988421ED1FA
:102FD0001FE0606885421CD2FFF712F9002818D163
:102FE000A068E1683825684322681018002902D0DB
:102FF0008847002807D0012803D1A06845432068EE
:103000004019FDF789F8A068451CA56020680028D4
:10301000DFD1B0BD881B0020445010B06616000000
:103020008500000080B50B49884205D00A498842D6
:103030000DD1FFF76BFE0AE00848692101700121FC
:10304000417020200221FEF73BFAFFF70DFE002021
:1030500080BDC0460100008002000080F8180020FA
:10306000014800797047C046F818002070470000FA
:10307000024900200860024908607047841C002053
:10308000881C002010B507484F21017000244470AF
:10309000012181700221C1700421FFF79BF82046B5
:1030A00010BDC0460018002070B582B06D464F2696
:1030B0002E7000246C700220A8700320E8702C7120
:1030C00005212846FFF786F82E706C700120A87045
:1030D000E87004212846FFF77DF8204602B070BD55
:1030E00010B582B001A84F21017000244470012165
:1030F00081700221C1700421FFF76CF8204602B0F4
:1031000010BD0000B0B582B00E48002404600E4827
:10311000046068464F2505704470052585700425B8
:10312000C570012505714171032A02D8D000074CF2
:10313000C44068468471C3710821FFF74BF8002032
:1031400002B0B0BD841C0020881C002001040302D2
:1031500010B582B068464F220270002444700522E8
:1031600082700422C2700122027141718471C471A3
:103170000821FFF72FF8204602B010BDB0B582B08D
:103180000D4668465021017000244470032181706F
:10319000C5704021017144710621FFF71BF88020A2
:1031A000054201D1074800E0054801687F2215402B
:1031B0000122AA400A430260204602B0B0BDC046C8
:1031C000841C0020881C002070B582B00D46684623
:1031D000502101700024447003218170C570802645
:1031E000067144710621FEF7F5FF354201D107480B
:1031F00000E0054801687F2215400122AA40914362
:103200000160204602B070BD841C0020881C002094
:103210008020014201D0064800E0044800687F2277
:10322000114001228A400240D0B27047881C002021
:10323000841C002010B582B068464F220270002422
:103240004470022282700322C27001710521FEF7D0
:10325000C1FF204602B010BDB0B582B01C46154675
:10326000684650220270E21C130A43708270C170DB
:103270002021017144710621FEF7ACFF284621464A
:10328000FEF7A8FF002002B0B0BD10B582B06846BE
:10329000502303700024447003238370C1703021D5
:1032A000017142710621FEF795FF204602B010BD64
:1032B00070B515460E4604460220002C11D04D2054
:1032C0008100204600F06CFF002E02D0112000018A
:1032D0002650FC200121215425702046FFF7C8FE0E
:1032E0000020C0B270BD70B50446FC2001212154FD
:1032F0004520800025180026F0002858002806D018
:103300004068FEF7D3FD0246217920469047761C9F
:10331000032EF1D12046FFF7E3FE2046FFF7B2FE71
:10332000002070BD0223002A07D00023022804D801
:10333000C0000818452189004250D8B2704780B5B6
:10334000FFF7B2FE002080BDF0B581B00C46054607
:10335000452080002F1800262846314600F07CF9D1
:10336000002808D0F00038580068FEF79FFD02469C
:10337000284621469047761C032EEDD1002001B04F
:10338000F0BDF0B581B00C460546452080002F18F1
:1033900000262846314600F05FF9002808D0F000EA
:1033A00038584068FEF782FD02462846214690477D
:1033B000761C032EEDD1002001B0F0BD70B504469F
:1033C0002120C600A519284600F09DFBF42001210C
:1033D000215087204000205AF8216050A15D1F2015
:1033E0000840022808D001280BD000280ED1204622
:1033F000294600F03FF90EE02046294600F0F8FA91
:1034000009E02046294600F0CEFA04E08020014081
:103410002046FFF7B3FE002070BDF0B583B00292E6
:103420000446019100291ED045208000251826461B
:10343000FC3600272046394600F00EF900280ED051
:10344000F80028588069002809D03178032906D16E
:10345000FEF72CFD034620460199029A98477F1CEF
:10346000032FE7D135E0F4202058032831D19020F4
:1034700020588C21615822468C3281420AD9091A7F
:103480001160814200D301468AB22046029900F0C1
:10349000BBFD1EE04520800026182746FC3700258E
:1034A0002046294600F0D8F800280CD0E800305813
:1034B0000069002807D03978032904D1FEF7F6FC0B
:1034C0000146204688476D1C032DE9D1204600F0B7
:1034D000A2FD002003B0F0BDF0B581B0044600911C
:1034E00000291DD04520800027182546FC350026E0
:1034F0002046314600F0B0F800280DD0F0003858D2
:103500004069002808D02978032905D1FEF7CEFCB0
:103510000246204600999047761C032EE8D151E0E0
:10352000F4202058022845D1E069256AA8420BD929
:10353000401BE06113210A01A1584919A15082B230
:10354000204600F053FD35E0A6693046294600F0DC
:1035500021FEAE420FD300290DD1F8202058274676
:10356000F837864207D20025204629462A4600F031
:103570003DFD3D601EE04520800026182746FC37B3
:1035800000252046294600F067F800280CD0E80006
:103590003058C068002807D03978032904D1FEF7D5
:1035A00085FC0146204688476D1C032DE9D1204645
:1035B00000F03DFD012001026018615C012901D18C
:1035C00000210170002001B0F0BD70B504469020CC
:1035D000402121502162FC200121215445208000FE
:1035E000261800252046294600F036F8002808D085
:1035F000E80030584068FEF759FC02462179204621
:1036000090476D1C032DEDD1002070BD017400208A
:103610007047002070470020704770B50446FC20BA
:10362000205C032816D1452080002618002520465E
:10363000294600F011F8002809D0E8003058C06988
:10364000002804D0FEF732FC0146204688476D1C56
:10365000032DECD1002070BD02460020022908D8BD
:10366000C80010184521890041580120002900D1C7
:103670000846704780B54A78042A08DD072A0FDC1F
:10368000052A14D0062A1BD100F021F81DE0002ADB
:1036900010D0012A17D0032A12D100F03BF914E010
:1036A000082A0AD0092A0BD100F0C3F80DE000F077
:1036B0009BF80AE000F00BF907E000F0F1F804E0F5
:1036C00000F0FCFB01E000F044F9002080BDB0B543
:1036D00082B00D4604466988080A052813DC0128D3
:1036E0001CD0022825D003283BD1C8B202283DDCDB
:1036F000002865D001286DD0022832D111200001A8
:103700002058C0680EE006281ED0072826D00F28B3
:1037100027D1112000012058C06903E011200001C9
:1037200020580068FEF7C2FB0246207C01A99047A2
:1037300034E0452080002058002100282FD0217C33
:10374000002925D0C06A24E0207C002809D145202A
:1037500080002058002804D0406B1AE0207C00280C
:103760000FD02046294600F0A9FB27E003282CD0E3
:10377000042834D00528F4D1112000012058806994
:10378000D0E74520800020580028EAD0006B00E0F8
:10379000806AFEF78BFB014601A88847014601A815
:1037A0000288002A0AD0E888002807D0824200D385
:1037B000024601A80280204600F002FC02B0B0BD23
:1037C0001120000120584068ACE71120000120586A
:1037D0000069A7E71120000120588068A2E71120A6
:1037E0000001205840699DE770B50446888800288C
:1037F0000BD1C888002808D148887F260640FC20C5
:10380000205C2546FC35032803D1204600F056FBFA
:1038100070BDFE202654F1B22046FFF70BFD204676
:1038200000F0F9FB02200121002E00D1084628708B
:1038300070BD70B50D460446AE78022E1DD2FC2038
:10384000215C2046FC30032907D0022915D1002E27
:1038500022D066600321017009E0002E12D060685A
:10386000864219D0C1B22046FFF78BFD6660204624
:103870003146FFF769FD02280ED12046294600F0A7
:103880001DFB70BD02210170666020463146FFF7C6
:1038900078FD204600F0BFFB204600F0BCFB70BD69
:1038A00080B5CA88012A0AD1FC22825C032A09D089
:1038B000022A04D1002181600146083103E000F0B2
:1038C000FDFA80BD011D012200F07AFB80BDB0B57C
:1038D0000446FC20205CFE220240022A16D1012070
:1038E000E06041208000215825460C350320002946
:1038F00005D0204600F09BFBE16802200843E06011
:1039000002222046294600F05BFBB0BD204600F0B5
:10391000D5FAB0BDB0B50D4604466888012817D168
:103920004120800001212150287902280DD8C000B3
:103930002018452189004058002806D08068FEF7ED
:10394000B5FA0246204629469047204600F063FB20
:10395000B0BDB0B50D460446FC20205CFE21014000
:1039600002291BD1688801281CD141208000002138
:103970002150287902280DD8C0002018452189003F
:103980004058002806D08068FEF790FA024620468C
:1039900029469047204600F03EFBB0BD2046294610
:1039A00000F08CFAB0BDB0B50D460446FC20205C9A
:1039B000032817D12879022814D8C00020184521DF
:1039C0008900405800280DD08068FEF76FFA024643
:1039D000204629469047E888002807D1204600F075
:1039E0001AFB03E02046294600F068FA0020B0BD2B
:1039F00070B50D4604462878602101402E792029B3
:103A000010D1022E0ED8F000201845218900405810
:103A1000002807D08068FEF749FA0246204629466A
:103A200090476EE06878002817D001281ED0032840
:103A300067D1FC20205C03281CD16888002808D1AD
:103A400080203043802804D020463146FFF796FB83
:103A50002E79022E52D8F00043E0FC20205C03288F
:103A600018D0022811D170060AD14AE0FC20205C4F
:103A7000032829D0022808D180203043802840D054
:103A800020463146FFF77AFB3BE02046294600F00E
:103A900015FA36E0254614352046843080210E4242
:103AA00000D1054620463146FFF7B2FB0121002830
:103AB00000D101467F2006403001295029180222FA
:103AC000204600F07DFA1CE06888002819D17006B5
:103AD00014D020463146FFF777FB287902280DD80D
:103AE000C0002018452189004058002806D0806871
:103AF000FEF7DCF90246204629469047204600F0B2
:103B00008AFA002070BD0A7802704A7842708A787A
:103B1000CB781B02134343800A794B791B02134372
:103B200083808A79C97909021143C180704710B531
:103B300004468021FFF722FB00212046FFF71EFBF1
:103B400010BDF0B583B00D46044602A800270780DB
:103B500001A80770297860200840002810D020288C
:103B600038D1687801460A39022933D302281CD09B
:103B700003281AD02046294600F0A0F9022729E0A0
:103B800068780B2814D00A280FD0062822D168881C
:103B9000000A002721280FD022283A46394616D19C
:103BA00002AE304600F058F80AE001A901220EE00A
:103BB000204600F030FA0DE002AE304600F032F858
:103BC00001463288E888824200D30246328020468D
:103BD00000F0F6F9F8B203B0F0BDF0B581B00446DC
:103BE00082210326402532462B46FFF78BFA022717
:103BF0002046394632462B46FFF784FA204639469E
:103C00002A46FFF742FB002001B0F0BD10B5044684
:103C10008221FFF79DFA02212046FFF799FA002042
:103C200010BD000043218900084A515C0922002987
:103C300004D0012905D10749794404E004497944B5
:103C400001E0002211460280084670478C1C0020CB
:103C5000DE0A0000D80A0000F0B581B00246432019
:103C600080001449085C222400281AD001281BD1A6
:103C7000104881210327402600923A463346FFF739
:103C800041FA01250B4829463A463346FFF73AFAEE
:103C9000084829463246FFF7F8FA009A0748784460
:103CA00004E00548784401E000242046148001B077
:103CB000F0BDC0468C1C0020A30A0000870A00004B
:103CC000F0B581B0044681210326402532462B46BB
:103CD000FFF718FA01272046394632462B46FFF7F0
:103CE00011FA204639462A46FFF7CFFA002001B0E4
:103CF000F0BD000080B5012903D103480121FEF782
:103D000039FC002080BDC0467C1A0020B0B51446A6
:103D100001290DD1012540222946FFF7B6FA284690
:103D2000FDF7DCF80246034821462B46FEF75CFD12
:103D30000020B0BD7C1A002080B5022903D10348C1
:103D40007844FCF7D9FF002080BDC0465DD2FFFF5C
:103D5000B0B5144602291BD102214022FFF795FA83
:103D60000C4D2878002813D10220FDF7B7F8024641
:103D70000C4878442146FCF7EDFE022808D10120CA
:103D8000287005480721017004480068044908802C
:103D90000020B0BD541A00206A1A0020F01800203C
:103DA0006C1A00202BD2FFFF70B504468321032537
:103DB00040262A463346FFF7A5F9204629462A46DB
:103DC0003346FFF79FF9204629463246FFF75DFA52
:103DD000002070BD002070470020704780B5032987
:103DE00003D103487844FCF787FF002080BDC0461C
:103DF000C9D1FFFFB0B5144603291BD103214022CE
:103E0000FFF743FA0C4D2878002813D10320FDF763
:103E100065F802460C4878442146FCF79BFE0228D0
:103E200008D10520287005480B210170044800685E
:103E3000044908800020B0BD541A00206A1A0020EE
:103E4000F01800206C1A002097D1FFFF1220088084
:103E5000014878447047C046160A000004200880D4
:103E6000014878447047C046180A00000E200880B8
:103E7000014878447047C0460C0A00000E200880B4
:103E8000014878447047C0460A0A00000A200880AA
:103E9000014878447047C046080A00000E20088098
:103EA000014878447047C046EA0900000E200880A7
:103EB000014878447047C046DA09000080B50A78A6
:103EC00052B2002A02DBFFF732FE80BD4A78062A92
:103ED0000DD01E2AF7D18A88022AF4D149880129F7
:103EE000F1D107497944172200F06AF880BDC978FA
:103EF0000F29E8D1034979441D2200F061F880BD03
:103F0000A8080000AD08000070B504464D208500EB
:103F10001C4800212A46FCF7C5FE002C2DD0194C68
:103F20000026204631462A46FCF7BCFE1849794453
:103F300020463246FFF7BCF9164A7A4430462146FD
:103F4000FFF7F0F90120144A7A442146FFF7EAF915
:103F5000FF2252320C480D49FEF7FEFA02200F4AAA
:103F60007A442146FFF7DEF9032140222046FFF77D
:103F70008CF92046FFF7E3F970BD0248FFF7B3F96B
:103F800070BDC0468C1C00207C1A0020F818002050
:103F90003E08000086080000B0080000D0080000BD
:103FA00060210180014878447047C046FE08000047
:103FB0000A210180014878447047C0464E0900003C
:103FC000B0B50C46F421022343508261C261132133
:103FD00009014450016A8A4200D30A4693B200257F
:103FE00029462246FFF738F92846B0BDB0B50C4641
:103FF000016A8A4200D30A4693B200252946224626
:10400000FFF72AF92846B0BD10B500242146FFF776
:104010003CF9204610BD10B5F42104224250002482
:10402000214622462346FFF717F9204610BD10B55A
:10403000F42105224250002421462246FFF725F9AB
:10404000204610BDF0B581B00090012A1ADB002493
:1040500023460098055D2F0930200743FE1D392FA8
:1040600000D83E4664000E550F2635400543EE1D30
:10407000392D00D82E46012004430E555B1C1CB27E
:104080009442E6DB01B0F0BD002243088B4274D3BA
:1040900003098B425FD3030A8B4244D3030B8B4249
:1040A00028D3030C8B420DD3FF22090212BA030C52
:1040B0008B4202D31212090265D0030B8B4219D333
:1040C00000E0090AC30B8B4201D3CB03C01A524153
:1040D000830B8B4201D38B03C01A5241430B8B429B
:1040E00001D34B03C01A5241030B8B4201D30B0384
:1040F000C01A5241C30A8B4201D3CB02C01A5241AB
:10410000830A8B4201D38B02C01A5241430A8B426D
:1041100001D34B02C01A5241030A8B4201D30B0256
:10412000C01A5241CDD2C3098B4201D3CB01C01A70
:10413000524183098B4201D38B01C01A524143097A
:104140008B4201D34B01C01A524103098B4201D368
:104150000B01C01A5241C3088B4201D3CB00C01AD5
:10416000524183088B4201D38B00C01A524143084D
:104170008B4201D34B00C01A5241411A00D2014672
:10418000524110467047FFE701B5002000F006F8E5
:1041900002BDC0460029F7D076E770477047C04699
:1041A00010B5002200F006F810BDC04610B500F0B2
:1041B00009F810BD130010B50A00190000F040F80E
:1041C00010BDC04670B50F2A32D90C0004430B0055
:1041D000A40731D115000400103D2D0901352D0132
:1041E00049191E6826605E6866609E68A660DE6883
:1041F0001033E66010349942F3D10F234519134070
:10420000032B1BD91C1F0023A4080134A400CE5883
:10421000EE5004339C42FAD103232D1909191A4098
:1042200005D00023CC5CEC5401339A42FAD170BD26
:104230000500002AF5D1FAE70500F2E71A00F8E7D1
:1042400070B583073FD0541E002A3BD0CEB2030086
:10425000032503E0621E002C34D0140001335A1EE3
:1042600016702B42F6D1032C24D9FF250D402A02CB
:1042700015432A0415430F2C11D92600103E360988
:10428000013636011A009B19156055609560D5609E
:1042900010329342F8D10F221440032C0AD9261F62
:1042A000B6080136B6001A009B1920C29342FCD111
:1042B00003221440002C05D0C9B21C191970013317
:1042C0009C42FBD170BD14000300CCE7F0C0414616
:1042D0004A4653465C466D4676467EC02838F0C84E
:1042E0000020704710307CC890469946A246AB46E5
:1042F000B54608C82838F0C8081C00D10120184766
:1043000010B5830727D00378002B26D003000321A4
:1043100002E01A78002A1CD001330B42F9D1196847
:104320000F4A104C8A188A4322420FD1043319686D
:104330000B4A8A188A43224208D104331968084A72
:104340008A188A432242F1D000E001331A78002A09
:10435000FBD1181A10BD0300E1E70020FAE7C046C0
:10436000FFFEFEFE80808080202020202020202054
:1043700020202020202020202000313233343536E8
:1043800037383941424344454647484A4B4C4D4EE5
:10439000505152535455565758595A616263646587
:1043A000666768696A6B6D6E6F707172737475762B
:1043B0007778797A3031323334353637383961624B
:1043C00063646566303132333435363738394142CB
:1043D000434445464552524F52006F0090016700DA
:1043E00069856A805532465F563290000109900017
:1043F0006E006D00FFFFFFFF0000000041726520AE
:10440000796F7520737572653F0057656C636F6DCA
:104410006520426F74746F730056657273696F6EB6
:1044200020312E302E3000436F6E6669726D20533E
:1044300069676E205478203F0000000003000000F0
:1044400000008000200000000100000000000000CB
:10445000FFFFFF000000000000000000000000005F
:10446000000000000000000000000000000000004C
:1044700000000000050003000C000700070000001A
:1044800000000000FFFFFF00000000000000070028
:10449000000000000000000000000000000000001C
:1044A0000000000000000000000000000500750092
:1044B0000D0008000600000000000000FFFFFF00E4
:1044C00000000000000006000000000000000000E6
:1044D00000000000000000000000000000000000DC
:1044E00000000000070100000C0080000C0000002C
:1044F00000000000FFFFFF00000000000880000037
:10450000FC43D0C0000000000000000000000000DC
:104510000000000000000000000000000300000098
:1045200000008000200000000100000000000000EA
:10453000FFFFFF000000000000000000000000007E
:10454000000000000000000000000000000000006B
:1045500000000000070200000C0080000B000000BB
:1045600000000000FFFFFF000000000008800000C6
:104570000A44D0C00000000000000000000000005D
:1045800000000000000000000000000007020A0018
:104590001C006C000B008A0000000000FFFFFF0001
:1045A000000000000A8000001944D0C00000000094
:1045B00000000000000000000000000000000000FB
:1045C00000000000050003000C00070007000000C9
:1045D00000000000FFFFFF000000000000000700D7
:1045E00000000000000000000000000000000000CB
:1045F00000000000000000000000000003000000B8
:104600000000800020000000010000000000000009
:10461000FFFFFF000000000000000000000000009D
:10462000000000000000000000000000000000008A
:1046300000000000070200000C0080000B000000DA
:1046400000000000FFFFFF000000000008800000E5
:104650002744D0C00000000000000000000000005F
:1046600000000000000000000000000007020A0037
:104670001C006C000B008A0000000000FFFFFF0020
:10468000000000000A800000001B00200000000065
:10469000000000000000000000000000000000001A
:1046A00000000000050003000C00070007000000E8
:1046B00000000000FFFFFF000000000000000700F6
:1046C00000000000000000000000000000000000EA
:1046D0000000000000000000000000000500750060
:1046E0000C0007000700000000000000FFFFFF00B3
:1046F00000000000000006000000000000000000B4
:1047000000000000000000000000000000000000A9
:1047100000000000092111012101222200000000F7
:1047200009211101000122220006D0F10901A10195
:104730000903150026FF0075089540810809041536
:104740000026FF00750895409108C006A0FF0901EA
:10475000A1010903150026FF00750895408108098D
:1047600004150026FF00750895409108C000000060
:104770004D3ED0C05D3ED0C06D3ED0C07D3ED0C06D
:104780008D3ED0C09D3ED0C0AD3ED0C000000000E8
:104790001703017777772E6C656467657277616CB4
:1047A0006C65742E636F6D050F1D000118100500F8
:1047B00038B60834A909A0478BFDA0768815B665E0
:1047C00000011E01DB3BD0C00D3CD0C0433BD0C03C
:1047D0000000000000000000393DD0C0513DD0C0B5
:1047E000000000000000000000000000A13FD0C059
:1047F000A13FD0C0A13FD0C0B13FD0C0C13CD0C0CC
:104800000D3CD0C0433BD0C00000000000000000C1
:10481000F53CD0C00D3DD0C00000000000000000FD
:1048200000000000A13FD0C0A13FD0C0A13FD0C038
:10483000B13FD0C0A93DD0C0D53DD0C0D93DD0C03A
:104840000000000000000000DD3DD0C0F53DD0C0FC
:10485000000000000000000000000000A13FD0C0E8
:10486000A13FD0C0A13FD0C0B13FD0C012010002D3
:1048700000000040972C0100000201020301040324
:1048800009040E034C0065006400670065007200B7
:104890000E034E0061006E006F00200053000A03FB
:1048A000300030003000310009026000030102C016
:1048B0003209040000020300000209211101000175
:1048C0002222000705820340000107050203400081
:1048D0000109040100020301010209211101210162
:1048E0002222000705810340000107050103400063
:1048F000010904020002FFFFFF02070583034000D5
:1049000001070503034000010A0600020000004001
:104910000100000000000000000000000000000096
:104920000000000000000000000000000000000087
:104930000000000000000000000000000000000077
:04000005C0D0000166
:00000001FF
